{
  "contractName": "Ballot",
  "abi": [
    {
      "constant": true,
      "inputs": [
        {
          "name": "",
          "type": "uint256"
        }
      ],
      "name": "proposals",
      "outputs": [
        {
          "name": "voteCount",
          "type": "uint256"
        }
      ],
      "payable": false,
      "stateMutability": "view",
      "type": "function"
    },
    {
      "constant": true,
      "inputs": [],
      "name": "chairperson",
      "outputs": [
        {
          "name": "",
          "type": "address"
        }
      ],
      "payable": false,
      "stateMutability": "view",
      "type": "function"
    },
    {
      "constant": false,
      "inputs": [],
      "name": "renounceOwnership",
      "outputs": [],
      "payable": false,
      "stateMutability": "nonpayable",
      "type": "function"
    },
    {
      "constant": true,
      "inputs": [],
      "name": "owner",
      "outputs": [
        {
          "name": "",
          "type": "address"
        }
      ],
      "payable": false,
      "stateMutability": "view",
      "type": "function"
    },
    {
      "constant": true,
      "inputs": [
        {
          "name": "",
          "type": "address"
        }
      ],
      "name": "voters",
      "outputs": [
        {
          "name": "weight",
          "type": "uint256"
        },
        {
          "name": "voted",
          "type": "bool"
        },
        {
          "name": "vote",
          "type": "uint256"
        },
        {
          "name": "privatekey",
          "type": "uint256"
        }
      ],
      "payable": false,
      "stateMutability": "view",
      "type": "function"
    },
    {
      "constant": false,
      "inputs": [
        {
          "name": "_newOwner",
          "type": "address"
        }
      ],
      "name": "transferOwnership",
      "outputs": [],
      "payable": false,
      "stateMutability": "nonpayable",
      "type": "function"
    },
    {
      "inputs": [],
      "payable": false,
      "stateMutability": "nonpayable",
      "type": "constructor"
    },
    {
      "anonymous": false,
      "inputs": [
        {
          "indexed": true,
          "name": "previousOwner",
          "type": "address"
        }
      ],
      "name": "OwnershipRenounced",
      "type": "event"
    },
    {
      "anonymous": false,
      "inputs": [
        {
          "indexed": true,
          "name": "previousOwner",
          "type": "address"
        },
        {
          "indexed": true,
          "name": "newOwner",
          "type": "address"
        }
      ],
      "name": "OwnershipTransferred",
      "type": "event"
    },
    {
      "constant": false,
      "inputs": [
        {
          "name": "voter",
          "type": "address"
        },
        {
          "name": "privatekey",
          "type": "uint256"
        }
      ],
      "name": "giveRightToVote",
      "outputs": [],
      "payable": false,
      "stateMutability": "nonpayable",
      "type": "function"
    },
    {
      "constant": false,
      "inputs": [
        {
          "name": "proposal",
          "type": "uint256"
        },
        {
          "name": "privatekey",
          "type": "uint256"
        }
      ],
      "name": "vote",
      "outputs": [],
      "payable": false,
      "stateMutability": "nonpayable",
      "type": "function"
    },
    {
      "constant": true,
      "inputs": [
        {
          "name": "addr",
          "type": "address"
        }
      ],
      "name": "getVoteStatus",
      "outputs": [
        {
          "name": "",
          "type": "bool"
        }
      ],
      "payable": false,
      "stateMutability": "view",
      "type": "function"
    },
    {
      "constant": true,
      "inputs": [
        {
          "name": "addr",
          "type": "address"
        }
      ],
      "name": "getVoteResult",
      "outputs": [
        {
          "name": "",
          "type": "uint256"
        }
      ],
      "payable": false,
      "stateMutability": "view",
      "type": "function"
    },
    {
      "constant": true,
      "inputs": [
        {
          "name": "addr",
          "type": "address"
        }
      ],
      "name": "getVoteRight",
      "outputs": [
        {
          "name": "",
          "type": "bool"
        }
      ],
      "payable": false,
      "stateMutability": "view",
      "type": "function"
    },
    {
      "constant": true,
      "inputs": [],
      "name": "winningProposal",
      "outputs": [
        {
          "name": "winningProposal_",
          "type": "uint256"
        }
      ],
      "payable": false,
      "stateMutability": "view",
      "type": "function"
    },
    {
      "constant": true,
      "inputs": [
        {
          "name": "index",
          "type": "uint256"
        }
      ],
      "name": "votedCount",
      "outputs": [
        {
          "name": "",
          "type": "uint256"
        }
      ],
      "payable": false,
      "stateMutability": "view",
      "type": "function"
    }
  ],
  "bytecode": "0x608060405234801561001057600080fd5b50336000806101000a81548173ffffffffffffffffffffffffffffffffffffffff021916908373ffffffffffffffffffffffffffffffffffffffff16021790555033600160006101000a81548173ffffffffffffffffffffffffffffffffffffffff021916908373ffffffffffffffffffffffffffffffffffffffff160217905550600160026000600160009054906101000a900473ffffffffffffffffffffffffffffffffffffffff1673ffffffffffffffffffffffffffffffffffffffff1673ffffffffffffffffffffffffffffffffffffffff16815260200190815260200160002060000181905550600360206040519081016040528060008152509080600181540180825580915050906001820390600052602060002001600090919290919091506000820151816000015550505060036020604051908101604052806000815250908060018154018082558091505090600182039060005260206000200160009091929091909150600082015181600001555050506003602060405190810160405280600081525090806001815401808255809150509060018203906000526020600020016000909192909190915060008201518160000155505050610e3a806101e06000396000f3006080604052600436106100c5576000357c0100000000000000000000000000000000000000000000000000000000900463ffffffff168063013cf08b146100ca578063221b481b1461010b5780632e4176cf1461014c578063521b0dcc146101a357806353bbffec146101fe578063609ff1bd14610255578063715018a6146102805780638da5cb5b14610297578063a3ec138d146102ee578063b384abef1461035e578063ce50aa7d14610395578063eb399ff4146103e2578063f2fde38b1461043d575b600080fd5b3480156100d657600080fd5b506100f560048036038101908080359060200190929190505050610480565b6040518082815260200191505060405180910390f35b34801561011757600080fd5b50610136600480360381019080803590602001909291905050506104a9565b6040518082815260200191505060405180910390f35b34801561015857600080fd5b506101616104de565b604051808273ffffffffffffffffffffffffffffffffffffffff1673ffffffffffffffffffffffffffffffffffffffff16815260200191505060405180910390f35b3480156101af57600080fd5b506101e4600480360381019080803573ffffffffffffffffffffffffffffffffffffffff169060200190929190505050610504565b604051808215151515815260200191505060405180910390f35b34801561020a57600080fd5b5061023f600480360381019080803573ffffffffffffffffffffffffffffffffffffffff169060200190929190505050610562565b6040518082815260200191505060405180910390f35b34801561026157600080fd5b5061026a6105b3565b6040518082815260200191505060405180910390f35b34801561028c57600080fd5b50610295610626565b005b3480156102a357600080fd5b506102ac610728565b604051808273ffffffffffffffffffffffffffffffffffffffff1673ffffffffffffffffffffffffffffffffffffffff16815260200191505060405180910390f35b3480156102fa57600080fd5b5061032f600480360381019080803573ffffffffffffffffffffffffffffffffffffffff16906020019092919050505061074d565b604051808581526020018415151515815260200183815260200182815260200194505050505060405180910390f35b34801561036a57600080fd5b50610393600480360381019080803590602001909291908035906020019092919050505061078a565b005b3480156103a157600080fd5b506103e0600480360381019080803573ffffffffffffffffffffffffffffffffffffffff169060200190929190803590602001909291905050506109b4565b005b3480156103ee57600080fd5b50610423600480360381019080803573ffffffffffffffffffffffffffffffffffffffff169060200190929190505050610c48565b604051808215151515815260200191505060405180910390f35b34801561044957600080fd5b5061047e600480360381019080803573ffffffffffffffffffffffffffffffffffffffff169060200190929190505050610cad565b005b60038181548110151561048f57fe5b906000526020600020016000915090508060000154905081565b60006003821015156104ba57600080fd5b6003828154811015156104c957fe5b90600052602060002001600001549050919050565b600160009054906101000a900473ffffffffffffffffffffffffffffffffffffffff1681565b600080600260008473ffffffffffffffffffffffffffffffffffffffff1673ffffffffffffffffffffffffffffffffffffffff16815260200190815260200160002090508060010160009054906101000a900460ff16915050919050565b600080600260008473ffffffffffffffffffffffffffffffffffffffff1673ffffffffffffffffffffffffffffffffffffffff16815260200190815260200160002090508060020154915050919050565b6000806000809150600090505b60038054905081101561062157816003828154811015156105dd57fe5b906000526020600020016000015411156106145760038181548110151561060057fe5b906000526020600020016000015491508092505b80806001019150506105c0565b505090565b6000809054906101000a900473ffffffffffffffffffffffffffffffffffffffff1673ffffffffffffffffffffffffffffffffffffffff163373ffffffffffffffffffffffffffffffffffffffff1614151561068157600080fd5b6000809054906101000a900473ffffffffffffffffffffffffffffffffffffffff1673ffffffffffffffffffffffffffffffffffffffff167ff8df31144d9c2f0f6b59d69b8b98abd5459d07f2742c4df920b25aae33c6482060405160405180910390a260008060006101000a81548173ffffffffffffffffffffffffffffffffffffffff021916908373ffffffffffffffffffffffffffffffffffffffff160217905550565b6000809054906101000a900473ffffffffffffffffffffffffffffffffffffffff1681565b60026020528060005260406000206000915090508060000154908060010160009054906101000a900460ff16908060020154908060030154905084565b6000600260003373ffffffffffffffffffffffffffffffffffffffff1673ffffffffffffffffffffffffffffffffffffffff1681526020019081526020016000209050600081600001541415151561084a576040517f08c379a00000000000000000000000000000000000000000000000000000000081526004018080602001828103825260148152602001807f486173206e6f20726967687420746f20766f746500000000000000000000000081525060200191505060405180910390fd5b8060010160009054906101000a900460ff161515156108d1576040517f08c379a000000000000000000000000000000000000000000000000000000000815260040180806020018281038252600e8152602001807f416c726561647920766f7465642e00000000000000000000000000000000000081525060200191505060405180910390fd5b6003831015156108e057600080fd5b81816003015414151561095b576040517f08c379a00000000000000000000000000000000000000000000000000000000081526004018080602001828103825260168152602001807f507269766174656b657920697320696e76616c69642e0000000000000000000081525060200191505060405180910390fd5b60018160010160006101000a81548160ff021916908315150217905550828160020181905550806000015460038481548110151561099557fe5b9060005260206000200160000160008282540192505081905550505050565b600160009054906101000a900473ffffffffffffffffffffffffffffffffffffffff1673ffffffffffffffffffffffffffffffffffffffff163373ffffffffffffffffffffffffffffffffffffffff16141515610a9f576040517f08c379a00000000000000000000000000000000000000000000000000000000081526004018080602001828103825260288152602001807f4f6e6c79206368616972706572736f6e2063616e20676976652072696768742081526020017f746f20766f74652e00000000000000000000000000000000000000000000000081525060400191505060405180910390fd5b600260008373ffffffffffffffffffffffffffffffffffffffff1673ffffffffffffffffffffffffffffffffffffffff16815260200190815260200160002060010160009054906101000a900460ff16151515610b64576040517f08c379a00000000000000000000000000000000000000000000000000000000081526004018080602001828103825260188152602001807f54686520766f74657220616c726561647920766f7465642e000000000000000081525060200191505060405180910390fd5b6000600260008473ffffffffffffffffffffffffffffffffffffffff1673ffffffffffffffffffffffffffffffffffffffff16815260200190815260200160002060000154141515610bb557600080fd5b6001600260008473ffffffffffffffffffffffffffffffffffffffff1673ffffffffffffffffffffffffffffffffffffffff1681526020019081526020016000206000018190555080600260008473ffffffffffffffffffffffffffffffffffffffff1673ffffffffffffffffffffffffffffffffffffffff168152602001908152602001600020600301819055505050565b600080600260008473ffffffffffffffffffffffffffffffffffffffff1673ffffffffffffffffffffffffffffffffffffffff1681526020019081526020016000209050600081600001541415610ca25760009150610ca7565b600191505b50919050565b6000809054906101000a900473ffffffffffffffffffffffffffffffffffffffff1673ffffffffffffffffffffffffffffffffffffffff163373ffffffffffffffffffffffffffffffffffffffff16141515610d0857600080fd5b610d1181610d14565b50565b600073ffffffffffffffffffffffffffffffffffffffff168173ffffffffffffffffffffffffffffffffffffffff1614151515610d5057600080fd5b8073ffffffffffffffffffffffffffffffffffffffff166000809054906101000a900473ffffffffffffffffffffffffffffffffffffffff1673ffffffffffffffffffffffffffffffffffffffff167f8be0079c531659141344cd1fd0a4f28419497f9722a3daafe3b4186f6b6457e060405160405180910390a3806000806101000a81548173ffffffffffffffffffffffffffffffffffffffff021916908373ffffffffffffffffffffffffffffffffffffffff160217905550505600a165627a7a7230582014af28b7ce788ed24fd1df2e7cba3c6d3b1d658beb6857fa4b00a8dc3c81f13e0029",
  "source": "pragma solidity ^0.4.24;\n\nimport \"openzeppelin-solidity/contracts/ownership/Ownable.sol\";\n\n/// @title Voting with delegation.\ncontract Ballot is Ownable {\n    // This declares a new complex type which will\n    // be used for variables later.\n    // It will represent a single voter.\n    struct Voter {\n        uint weight; // weight is accumulated by delegation\n        bool voted;  // if true, that person already voted\n        uint vote;   // index of the voted proposal\n        uint privatekey;\n    }\n\n    // This is a type for a single proposal.\n    struct Proposal {\n        uint voteCount; // number of accumulated votes\n    }\n\n    address public chairperson;\n\n    // This declares a state variable that\n    // stores a `Voter` struct for each possible address.\n    mapping(address => Voter) public voters;\n\n    // A dynamically-sized array of `Proposal` structs.\n    Proposal[] public proposals;\n\n    /// Create a new ballot to choose one of `proposalNames`.\n    constructor() public {\n        chairperson = msg.sender;\n        voters[chairperson].weight = 1;\n\n        // For each of the provided proposal names,\n        // create a new proposal object and add it\n        // to the end of the array.\n        // for (uint i = 0; i < 3; i++) {\n            // `Proposal({...})` creates a temporary\n            // Proposal object and `proposals.push(...)`\n            // appends it to the end of `proposals`.\n            proposals.push(Proposal({\n                voteCount: 0\n            }));\n            proposals.push(Proposal({\n                voteCount: 0\n            }));\n            proposals.push(Proposal({\n                voteCount: 0\n            }));\n        // }\n    }\n\n    // Give `voter` the right to vote on this ballot.\n    // May only be called by `chairperson`.\n    function giveRightToVote(address voter,uint privatekey) public {\n        // If the first argument of `require` evaluates\n        // to `false`, execution terminates and all\n        // changes to the state and to Ether balances\n        // are reverted.\n        // This used to consume all gas in old EVM versions, but\n        // not anymore.\n        // It is often a good idea to use `require` to check if\n        // functions are called correctly.\n        // As a second argument, you can also provide an\n        // explanation about what went wrong.\n        require(\n            msg.sender == chairperson,\n            \"Only chairperson can give right to vote.\"\n        );\n        require(\n            !voters[voter].voted,\n            \"The voter already voted.\"\n        );\n        require(voters[voter].weight == 0);\n        voters[voter].weight = 1;\n        voters[voter].privatekey = privatekey;\n    }\n\n    /// Give your vote (including votes delegated to you)\n    /// to proposal `proposals[proposal].name`.\n    function vote(uint proposal, uint privatekey) public {\n        Voter storage sender = voters[msg.sender];\n        require(sender.weight != 0, \"Has no right to vote\");\n        require(!sender.voted, \"Already voted.\");\n        require(proposal < 3);\n        require(sender.privatekey == privatekey,\"Privatekey is invalid.\");\n        sender.voted = true;\n        sender.vote = proposal;\n\n        // If `proposal` is out of the range of the array,\n        // this will throw automatically and revert all\n        // changes.\n        proposals[proposal].voteCount += sender.weight;\n    }\n    function getVoteStatus(address addr) public view returns(bool)\n    {\n        Voter storage sender = voters[addr];\n        return sender.voted;\n    }\n    function getVoteResult(address addr) public view returns(uint)\n    {\n        Voter storage sender = voters[addr];\n        return sender.vote;\n    }\n    function getVoteRight(address addr) public view returns(bool)\n    {\n        Voter storage sender = voters[addr];\n        if(sender.weight == 0)\n            return false;\n        return true;\n    }\n    /// @dev Computes the winning proposal taking all\n    /// previous votes into account.\n    function winningProposal() public view\n            returns (uint winningProposal_)\n    {\n        uint winningVoteCount = 0;\n        for (uint p = 0; p < proposals.length; p++) {\n            if (proposals[p].voteCount > winningVoteCount) {\n                winningVoteCount = proposals[p].voteCount;\n                winningProposal_ = p;\n            }\n        }\n    }\n    function votedCount(uint index) public view returns(uint){\n        require(index < 3);\n        return proposals[index].voteCount;\n    }\n}",
  "sourcePath": "/home/ubuntu/vote-dapp/contracts/Ballot.sol",
  "compiler": {
    "name": "solc",
    "version": "0.4.24+commit.e67f0147.Emscripten.clang"
  },
  "schemaVersion": "3.0.23",
  "updatedAt": "2020-03-15T18:27:21.508Z",
  "networkType": "ethereum",
  "devdoc": {
    "methods": {
      "renounceOwnership()": {
        "details": "Allows the current owner to relinquish control of the contract."
      },
      "transferOwnership(address)": {
        "details": "Allows the current owner to transfer control of the contract to a newOwner.",
        "params": {
          "_newOwner": "The address to transfer ownership to."
        }
      },
      "winningProposal()": {
        "details": "Computes the winning proposal taking all previous votes into account."
      }
    },
    "title": "Voting with delegation."
  },
  "userdoc": {
    "methods": {
      "renounceOwnership()": {
        "notice": "Renouncing to ownership will leave the contract without an owner. It will not be possible to call the functions with the `onlyOwner` modifier anymore."
      },
      "vote(uint256,uint256)": {
        "notice": "Give your vote (including votes delegated to you) to proposal `proposals[proposal].name`."
      }
    }
  }
}