{
  "contractName": "MainContract",
  "abi": [
    {
      "constant": true,
      "inputs": [
        {
          "name": "",
          "type": "uint256"
        }
      ],
      "name": "entityStructs",
      "outputs": [
        {
          "name": "entityAddress",
          "type": "address"
        },
        {
          "name": "refferalAddress",
          "type": "address"
        },
        {
          "name": "entityData",
          "type": "uint256"
        },
        {
          "name": "isActive",
          "type": "bool"
        },
        {
          "name": "updateTime",
          "type": "uint256"
        }
      ],
      "payable": false,
      "stateMutability": "view",
      "type": "function"
    },
    {
      "constant": true,
      "inputs": [],
      "name": "totalDepositedToken",
      "outputs": [
        {
          "name": "",
          "type": "uint256"
        }
      ],
      "payable": false,
      "stateMutability": "view",
      "type": "function"
    },
    {
      "constant": true,
      "inputs": [],
      "name": "maximumDeposit",
      "outputs": [
        {
          "name": "",
          "type": "uint256"
        }
      ],
      "payable": false,
      "stateMutability": "view",
      "type": "function"
    },
    {
      "constant": true,
      "inputs": [],
      "name": "minimumDeposit",
      "outputs": [
        {
          "name": "",
          "type": "uint256"
        }
      ],
      "payable": false,
      "stateMutability": "view",
      "type": "function"
    },
    {
      "constant": true,
      "inputs": [],
      "name": "minimumWithdraw",
      "outputs": [
        {
          "name": "",
          "type": "uint256"
        }
      ],
      "payable": false,
      "stateMutability": "view",
      "type": "function"
    },
    {
      "constant": true,
      "inputs": [],
      "name": "maximumWithdraw",
      "outputs": [
        {
          "name": "",
          "type": "uint256"
        }
      ],
      "payable": false,
      "stateMutability": "view",
      "type": "function"
    },
    {
      "constant": false,
      "inputs": [],
      "name": "renounceOwnership",
      "outputs": [],
      "payable": false,
      "stateMutability": "nonpayable",
      "type": "function"
    },
    {
      "constant": false,
      "inputs": [],
      "name": "destroy",
      "outputs": [],
      "payable": false,
      "stateMutability": "nonpayable",
      "type": "function"
    },
    {
      "constant": true,
      "inputs": [],
      "name": "owner",
      "outputs": [
        {
          "name": "",
          "type": "address"
        }
      ],
      "payable": false,
      "stateMutability": "view",
      "type": "function"
    },
    {
      "constant": true,
      "inputs": [],
      "name": "tokenAddress",
      "outputs": [
        {
          "name": "",
          "type": "address"
        }
      ],
      "payable": false,
      "stateMutability": "view",
      "type": "function"
    },
    {
      "constant": true,
      "inputs": [],
      "name": "activationDays",
      "outputs": [
        {
          "name": "",
          "type": "uint256"
        }
      ],
      "payable": false,
      "stateMutability": "view",
      "type": "function"
    },
    {
      "constant": true,
      "inputs": [],
      "name": "stage",
      "outputs": [
        {
          "name": "",
          "type": "uint8"
        }
      ],
      "payable": false,
      "stateMutability": "view",
      "type": "function"
    },
    {
      "constant": true,
      "inputs": [],
      "name": "totalEthRewards",
      "outputs": [
        {
          "name": "",
          "type": "uint256"
        }
      ],
      "payable": false,
      "stateMutability": "view",
      "type": "function"
    },
    {
      "constant": true,
      "inputs": [],
      "name": "creationTime",
      "outputs": [
        {
          "name": "",
          "type": "uint256"
        }
      ],
      "payable": false,
      "stateMutability": "view",
      "type": "function"
    },
    {
      "constant": true,
      "inputs": [],
      "name": "ethHolder",
      "outputs": [
        {
          "name": "",
          "type": "address"
        }
      ],
      "payable": false,
      "stateMutability": "view",
      "type": "function"
    },
    {
      "constant": false,
      "inputs": [
        {
          "name": "_newOwner",
          "type": "address"
        }
      ],
      "name": "transferOwnership",
      "outputs": [],
      "payable": false,
      "stateMutability": "nonpayable",
      "type": "function"
    },
    {
      "constant": false,
      "inputs": [
        {
          "name": "_recipient",
          "type": "address"
        }
      ],
      "name": "destroyAndSend",
      "outputs": [],
      "payable": false,
      "stateMutability": "nonpayable",
      "type": "function"
    },
    {
      "inputs": [
        {
          "name": "_hackbertToken",
          "type": "address"
        }
      ],
      "payable": true,
      "stateMutability": "payable",
      "type": "constructor"
    },
    {
      "payable": true,
      "stateMutability": "payable",
      "type": "fallback"
    },
    {
      "anonymous": false,
      "inputs": [
        {
          "indexed": true,
          "name": "previousOwner",
          "type": "address"
        }
      ],
      "name": "OwnershipRenounced",
      "type": "event"
    },
    {
      "anonymous": false,
      "inputs": [
        {
          "indexed": true,
          "name": "previousOwner",
          "type": "address"
        },
        {
          "indexed": true,
          "name": "newOwner",
          "type": "address"
        }
      ],
      "name": "OwnershipTransferred",
      "type": "event"
    },
    {
      "constant": true,
      "inputs": [],
      "name": "getOwner",
      "outputs": [
        {
          "name": "",
          "type": "address"
        }
      ],
      "payable": false,
      "stateMutability": "view",
      "type": "function"
    },
    {
      "constant": false,
      "inputs": [
        {
          "name": "_minimumDeositAmount",
          "type": "uint256"
        },
        {
          "name": "_minimumWithdrawAmount",
          "type": "uint256"
        },
        {
          "name": "_activationdays",
          "type": "uint256"
        }
      ],
      "name": "setAdminParams",
      "outputs": [
        {
          "name": "",
          "type": "bool"
        }
      ],
      "payable": false,
      "stateMutability": "nonpayable",
      "type": "function"
    },
    {
      "constant": true,
      "inputs": [],
      "name": "getMinimumDepositAmount",
      "outputs": [
        {
          "name": "",
          "type": "uint256"
        }
      ],
      "payable": false,
      "stateMutability": "view",
      "type": "function"
    },
    {
      "constant": true,
      "inputs": [],
      "name": "getMinimumWithdrawAmount",
      "outputs": [
        {
          "name": "",
          "type": "uint256"
        }
      ],
      "payable": false,
      "stateMutability": "view",
      "type": "function"
    },
    {
      "constant": true,
      "inputs": [],
      "name": "getActivationDays",
      "outputs": [
        {
          "name": "",
          "type": "uint256"
        }
      ],
      "payable": false,
      "stateMutability": "view",
      "type": "function"
    },
    {
      "constant": false,
      "inputs": [
        {
          "name": "_value",
          "type": "uint256"
        }
      ],
      "name": "setMinimumDepositAmount",
      "outputs": [
        {
          "name": "",
          "type": "bool"
        }
      ],
      "payable": false,
      "stateMutability": "nonpayable",
      "type": "function"
    },
    {
      "constant": false,
      "inputs": [
        {
          "name": "_value",
          "type": "uint256"
        }
      ],
      "name": "setMinimumWithdrawAmount",
      "outputs": [
        {
          "name": "",
          "type": "bool"
        }
      ],
      "payable": false,
      "stateMutability": "nonpayable",
      "type": "function"
    },
    {
      "constant": false,
      "inputs": [
        {
          "name": "_value",
          "type": "uint256"
        }
      ],
      "name": "setActivationDays",
      "outputs": [
        {
          "name": "",
          "type": "bool"
        }
      ],
      "payable": false,
      "stateMutability": "nonpayable",
      "type": "function"
    },
    {
      "constant": true,
      "inputs": [
        {
          "name": "entityAddress",
          "type": "address"
        }
      ],
      "name": "isEntity",
      "outputs": [
        {
          "name": "isIndeed",
          "type": "bool"
        }
      ],
      "payable": false,
      "stateMutability": "view",
      "type": "function"
    },
    {
      "constant": true,
      "inputs": [
        {
          "name": "entityAddress",
          "type": "address"
        }
      ],
      "name": "isActivated",
      "outputs": [
        {
          "name": "",
          "type": "bool"
        }
      ],
      "payable": false,
      "stateMutability": "view",
      "type": "function"
    },
    {
      "constant": true,
      "inputs": [
        {
          "name": "entityAddress",
          "type": "address"
        }
      ],
      "name": "getActivateState",
      "outputs": [
        {
          "name": "",
          "type": "bool"
        }
      ],
      "payable": false,
      "stateMutability": "view",
      "type": "function"
    },
    {
      "constant": false,
      "inputs": [
        {
          "name": "entityAddress",
          "type": "address"
        }
      ],
      "name": "checkActivate",
      "outputs": [
        {
          "name": "",
          "type": "bool"
        }
      ],
      "payable": false,
      "stateMutability": "nonpayable",
      "type": "function"
    },
    {
      "constant": true,
      "inputs": [],
      "name": "checkActivateAll",
      "outputs": [
        {
          "name": "",
          "type": "uint256"
        }
      ],
      "payable": false,
      "stateMutability": "view",
      "type": "function"
    },
    {
      "constant": true,
      "inputs": [],
      "name": "getTotalDepositedToken",
      "outputs": [
        {
          "name": "",
          "type": "uint256"
        }
      ],
      "payable": false,
      "stateMutability": "view",
      "type": "function"
    },
    {
      "constant": true,
      "inputs": [
        {
          "name": "entityAddress",
          "type": "address"
        }
      ],
      "name": "getDepositedTokenOfUser",
      "outputs": [
        {
          "name": "",
          "type": "uint256"
        }
      ],
      "payable": false,
      "stateMutability": "view",
      "type": "function"
    },
    {
      "constant": true,
      "inputs": [],
      "name": "getEntityCount",
      "outputs": [
        {
          "name": "entityCount",
          "type": "uint256"
        }
      ],
      "payable": false,
      "stateMutability": "view",
      "type": "function"
    },
    {
      "constant": true,
      "inputs": [],
      "name": "getTotalUsers",
      "outputs": [
        {
          "name": "",
          "type": "uint256"
        }
      ],
      "payable": false,
      "stateMutability": "view",
      "type": "function"
    },
    {
      "constant": true,
      "inputs": [],
      "name": "getActivatedUsers",
      "outputs": [
        {
          "name": "",
          "type": "uint256"
        }
      ],
      "payable": false,
      "stateMutability": "view",
      "type": "function"
    },
    {
      "constant": false,
      "inputs": [
        {
          "name": "entityAddress",
          "type": "address"
        },
        {
          "name": "entityData",
          "type": "uint256"
        },
        {
          "name": "referral",
          "type": "address"
        }
      ],
      "name": "newEntity",
      "outputs": [
        {
          "name": "",
          "type": "bool"
        }
      ],
      "payable": false,
      "stateMutability": "nonpayable",
      "type": "function"
    },
    {
      "constant": false,
      "inputs": [
        {
          "name": "entityAddress",
          "type": "address"
        },
        {
          "name": "entityData",
          "type": "uint256"
        }
      ],
      "name": "depositEntity",
      "outputs": [
        {
          "name": "success",
          "type": "bool"
        }
      ],
      "payable": false,
      "stateMutability": "nonpayable",
      "type": "function"
    },
    {
      "constant": false,
      "inputs": [
        {
          "name": "entityAddress",
          "type": "address"
        },
        {
          "name": "entityData",
          "type": "uint256"
        }
      ],
      "name": "withdrawEntity",
      "outputs": [
        {
          "name": "success",
          "type": "bool"
        }
      ],
      "payable": false,
      "stateMutability": "nonpayable",
      "type": "function"
    },
    {
      "constant": true,
      "inputs": [
        {
          "name": "entityAddress",
          "type": "address"
        }
      ],
      "name": "getTokenBalance",
      "outputs": [
        {
          "name": "depositedBalance",
          "type": "uint256"
        }
      ],
      "payable": false,
      "stateMutability": "view",
      "type": "function"
    },
    {
      "constant": true,
      "inputs": [
        {
          "name": "entityAddress",
          "type": "address"
        }
      ],
      "name": "getReferralAddress",
      "outputs": [
        {
          "name": "referralAddress",
          "type": "address"
        }
      ],
      "payable": false,
      "stateMutability": "view",
      "type": "function"
    },
    {
      "constant": false,
      "inputs": [
        {
          "name": "_token",
          "type": "address"
        }
      ],
      "name": "setToken",
      "outputs": [
        {
          "name": "",
          "type": "bool"
        }
      ],
      "payable": false,
      "stateMutability": "nonpayable",
      "type": "function"
    },
    {
      "constant": false,
      "inputs": [
        {
          "name": "_minimumDeposit",
          "type": "uint256"
        }
      ],
      "name": "setMinimumDeposit",
      "outputs": [],
      "payable": false,
      "stateMutability": "nonpayable",
      "type": "function"
    },
    {
      "constant": false,
      "inputs": [
        {
          "name": "_maximumDeposit",
          "type": "uint256"
        }
      ],
      "name": "setMaximumDeposit",
      "outputs": [],
      "payable": false,
      "stateMutability": "nonpayable",
      "type": "function"
    },
    {
      "constant": false,
      "inputs": [],
      "name": "start",
      "outputs": [],
      "payable": false,
      "stateMutability": "nonpayable",
      "type": "function"
    },
    {
      "constant": false,
      "inputs": [],
      "name": "scheduleMyfucntion",
      "outputs": [],
      "payable": false,
      "stateMutability": "nonpayable",
      "type": "function"
    },
    {
      "constant": false,
      "inputs": [],
      "name": "myfucntion",
      "outputs": [],
      "payable": false,
      "stateMutability": "nonpayable",
      "type": "function"
    },
    {
      "constant": false,
      "inputs": [],
      "name": "Deposit",
      "outputs": [],
      "payable": true,
      "stateMutability": "payable",
      "type": "function"
    },
    {
      "constant": false,
      "inputs": [],
      "name": "Withdraw",
      "outputs": [],
      "payable": true,
      "stateMutability": "payable",
      "type": "function"
    },
    {
      "constant": false,
      "inputs": [],
      "name": "checkBalanceOfEthHolder",
      "outputs": [],
      "payable": false,
      "stateMutability": "nonpayable",
      "type": "function"
    },
    {
      "constant": false,
      "inputs": [],
      "name": "DivideETH",
      "outputs": [],
      "payable": false,
      "stateMutability": "nonpayable",
      "type": "function"
    },
    {
      "constant": false,
      "inputs": [],
      "name": "ApproveUsers",
      "outputs": [],
      "payable": false,
      "stateMutability": "nonpayable",
      "type": "function"
    },
    {
      "constant": false,
      "inputs": [
        {
          "name": "_value",
          "type": "uint256"
        },
        {
          "name": "referral",
          "type": "address"
        }
      ],
      "name": "placeDeposit",
      "outputs": [
        {
          "name": "",
          "type": "bool"
        }
      ],
      "payable": false,
      "stateMutability": "nonpayable",
      "type": "function"
    },
    {
      "constant": false,
      "inputs": [
        {
          "name": "_value",
          "type": "uint256"
        }
      ],
      "name": "placeWithdraw",
      "outputs": [
        {
          "name": "",
          "type": "bool"
        }
      ],
      "payable": false,
      "stateMutability": "nonpayable",
      "type": "function"
    }
  ],
  "bytecode": "0x60806040526000600f60006101000a81548160ff0219169083600381111561002357fe5b0217905550426010556040516020806140c083398101806040528101908080519060200190929190505050336000806101000a81548173ffffffffffffffffffffffffffffffffffffffff021916908373ffffffffffffffffffffffffffffffffffffffff160217905550336000806101000a81548173ffffffffffffffffffffffffffffffffffffffff021916908373ffffffffffffffffffffffffffffffffffffffff16021790555080600b60006101000a81548173ffffffffffffffffffffffffffffffffffffffff021916908373ffffffffffffffffffffffffffffffffffffffff1602179055506012600a0a600a026003819055506012600a0a620f4240026004819055506012600a0a600a026005819055506012600a0a620f424002600681905550600760088190555060006009819055506000600a8190555050613f4d806101736000396000f30060806040526004361061027d576000357c0100000000000000000000000000000000000000000000000000000000900463ffffffff1680630d66c91f146102a25780630f59c98c1461032757806314170a4b1461037e578063144fa6d7146103d957806314887c581461043457806318d6676c1461048f5780631dac0ede146105485780631fa8c9ae14610573578063201b4dec146105b85780633aecd0e3146105cf578063471fbd4a1461062657806347ec26e51461068b5780634954cbb9146106a25780634d97ef251461072557806354b302c51461078a57806356e42de2146107b557806357b154d5146107fa57806357ea89b6146108275780635d1b45b514610831578063636bfbab1461085c57806369c87817146108875780636d025569146108b2578063704603c614610917578063707dc57314610942578063715018a61461096d5780637c8781661461098457806380299b53146109af57806383197ef0146109f4578063893d20e814610a0b5780638da5cb5b14610a625780639933d64a14610ab95780639be572f614610ae45780639d76ea5814610b0f578063aab483d614610b66578063ba1abd0f14610bab578063bb58d77d14610bc2578063be9a655514610bed578063bf7dbc0114610c04578063c040e6b814610c5f578063c14190da14610c98578063c9faa7c514610cc3578063d0143bf014610d1e578063d8270dce14610d49578063de4303bc14610d74578063e78ec42e14610d9f578063e9a9530d14610dcc578063ec996f8214610de3578063ed21248c14610dfa578063ef19487114610e04578063ef8b4bee14610e5b578063f2fde38b14610eb4578063f5074f4114610ef7578063fa31f2ef14610f3a575b60003411156102a05734600a6000828254019250508190555061029e610f65565b505b005b3480156102ae57600080fd5b5061030d600480360381019080803573ffffffffffffffffffffffffffffffffffffffff16906020019092919080359060200190929190803573ffffffffffffffffffffffffffffffffffffffff169060200190929190505050611119565b604051808215151515815260200191505060405180910390f35b34801561033357600080fd5b50610368600480360381019080803573ffffffffffffffffffffffffffffffffffffffff16906020019092919050505061145a565b6040518082815260200191505060405180910390f35b34801561038a57600080fd5b506103bf600480360381019080803573ffffffffffffffffffffffffffffffffffffffff1690602001909291905050506115db565b604051808215151515815260200191505060405180910390f35b3480156103e557600080fd5b5061041a600480360381019080803573ffffffffffffffffffffffffffffffffffffffff1690602001909291905050506116e7565b604051808215151515815260200191505060405180910390f35b34801561044057600080fd5b50610475600480360381019080803573ffffffffffffffffffffffffffffffffffffffff1690602001909291905050506117ed565b604051808215151515815260200191505060405180910390f35b34801561049b57600080fd5b506104ba60048036038101908080359060200190929190505050611843565b604051808673ffffffffffffffffffffffffffffffffffffffff1673ffffffffffffffffffffffffffffffffffffffff1681526020018573ffffffffffffffffffffffffffffffffffffffff1673ffffffffffffffffffffffffffffffffffffffff168152602001848152602001831515151581526020018281526020019550505050505060405180910390f35b34801561055457600080fd5b5061055d6118d5565b6040518082815260200191505060405180910390f35b34801561057f57600080fd5b5061059e600480360381019080803590602001909291905050506118db565b604051808215151515815260200191505060405180910390f35b3480156105c457600080fd5b506105cd61195d565b005b3480156105db57600080fd5b50610610600480360381019080803573ffffffffffffffffffffffffffffffffffffffff169060200190929190505050611a76565b6040518082815260200191505060405180910390f35b34801561063257600080fd5b50610671600480360381019080803573ffffffffffffffffffffffffffffffffffffffff16906020019092919080359060200190929190505050611c44565b604051808215151515815260200191505060405180910390f35b34801561069757600080fd5b506106a0611f54565b005b3480156106ae57600080fd5b506106e3600480360381019080803573ffffffffffffffffffffffffffffffffffffffff169060200190929190505050612251565b604051808273ffffffffffffffffffffffffffffffffffffffff1673ffffffffffffffffffffffffffffffffffffffff16815260200191505060405180910390f35b34801561073157600080fd5b5061077060048036038101908080359060200190929190803573ffffffffffffffffffffffffffffffffffffffff1690602001909291905050506122f7565b604051808215151515815260200191505060405180910390f35b34801561079657600080fd5b5061079f6127b1565b6040518082815260200191505060405180910390f35b3480156107c157600080fd5b506107e0600480360381019080803590602001909291905050506127b7565b604051808215151515815260200191505060405180910390f35b34801561080657600080fd5b5061082560048036038101908080359060200190929190505050612824565b005b61082f612889565b005b34801561083d57600080fd5b5061084661299a565b6040518082815260200191505060405180910390f35b34801561086857600080fd5b506108716129a7565b6040518082815260200191505060405180910390f35b34801561089357600080fd5b5061089c6129ad565b6040518082815260200191505060405180910390f35b3480156108be57600080fd5b506108fd600480360381019080803573ffffffffffffffffffffffffffffffffffffffff169060200190929190803590602001909291905050506129b3565b604051808215151515815260200191505060405180910390f35b34801561092357600080fd5b5061092c612bc6565b6040518082815260200191505060405180910390f35b34801561094e57600080fd5b50610957612bcc565b6040518082815260200191505060405180910390f35b34801561097957600080fd5b50610982612bd6565b005b34801561099057600080fd5b50610999612cd8565b6040518082815260200191505060405180910390f35b3480156109bb57600080fd5b506109da60048036038101908080359060200190929190505050612ce2565b604051808215151515815260200191505060405180910390f35b348015610a0057600080fd5b50610a096130a5565b005b348015610a1757600080fd5b50610a2061313a565b604051808273ffffffffffffffffffffffffffffffffffffffff1673ffffffffffffffffffffffffffffffffffffffff16815260200191505060405180910390f35b348015610a6e57600080fd5b50610a77613163565b604051808273ffffffffffffffffffffffffffffffffffffffff1673ffffffffffffffffffffffffffffffffffffffff16815260200191505060405180910390f35b348015610ac557600080fd5b50610ace613188565b6040518082815260200191505060405180910390f35b348015610af057600080fd5b50610af9613192565b6040518082815260200191505060405180910390f35b348015610b1b57600080fd5b50610b2461319f565b604051808273ffffffffffffffffffffffffffffffffffffffff1673ffffffffffffffffffffffffffffffffffffffff16815260200191505060405180910390f35b348015610b7257600080fd5b50610b91600480360381019080803590602001909291905050506131c5565b604051808215151515815260200191505060405180910390f35b348015610bb757600080fd5b50610bc0613247565b005b348015610bce57600080fd5b50610bd7613251565b6040518082815260200191505060405180910390f35b348015610bf957600080fd5b50610c02613257565b005b348015610c1057600080fd5b50610c45600480360381019080803573ffffffffffffffffffffffffffffffffffffffff169060200190929190505050613261565b604051808215151515815260200191505060405180910390f35b348015610c6b57600080fd5b50610c7461348d565b60405180826003811115610c8457fe5b60ff16815260200191505060405180910390f35b348015610ca457600080fd5b50610cad6134a0565b6040518082815260200191505060405180910390f35b348015610ccf57600080fd5b50610d04600480360381019080803573ffffffffffffffffffffffffffffffffffffffff1690602001909291905050506134a6565b604051808215151515815260200191505060405180910390f35b348015610d2a57600080fd5b50610d33613681565b6040518082815260200191505060405180910390f35b348015610d5557600080fd5b50610d5e613690565b6040518082815260200191505060405180910390f35b348015610d8057600080fd5b50610d89613696565b6040518082815260200191505060405180910390f35b348015610dab57600080fd5b50610dca600480360381019080803590602001909291905050506136a0565b005b348015610dd857600080fd5b50610de1613705565b005b348015610def57600080fd5b50610df861381e565b005b610e02613937565b005b348015610e1057600080fd5b50610e19613a48565b604051808273ffffffffffffffffffffffffffffffffffffffff1673ffffffffffffffffffffffffffffffffffffffff16815260200191505060405180910390f35b348015610e6757600080fd5b50610e9a600480360381019080803590602001909291908035906020019092919080359060200190929190505050613a6e565b604051808215151515815260200191505060405180910390f35b348015610ec057600080fd5b50610ef5600480360381019080803573ffffffffffffffffffffffffffffffffffffffff169060200190929190505050613b14565b005b348015610f0357600080fd5b50610f38600480360381019080803573ffffffffffffffffffffffffffffffffffffffff169060200190929190505050613b7b565b005b348015610f4657600080fd5b50610f4f613bef565b6040518082815260200191505060405180910390f35b600080600080600080610f76613bef565b5060006009541415610f8b5760009550611111565b60095493503073ffffffffffffffffffffffffffffffffffffffff1631925062030d409050610fc4602882613ca290919063ffffffff16565b9050600094505b600c8054905085101561111057600c85815481101515610fe757fe5b906000526020600020906005020160030160009054906101000a900460ff16151561101157611103565b61105684611048600c8881548110151561102757fe5b90600052602060002090600502016002015486613ca290919063ffffffff16565b613cda90919063ffffffff16565b9150808211151561106657611103565b6110798183613cf090919063ffffffff16565b9150600c8581548110151561108a57fe5b906000526020600020906005020160000160009054906101000a900473ffffffffffffffffffffffffffffffffffffffff1673ffffffffffffffffffffffffffffffffffffffff166108fc839081150290604051600060405180830381858888f19350505050158015611101573d6000803e3d6000fd5b505b8480600101955050610fcb565b5b505050505090565b6000611123613ec3565b61112c856117ed565b1515156111a1576040517f08c379a00000000000000000000000000000000000000000000000000000000081526004018080602001828103825260178152602001807f656e74697479416464726573732069732065786973742e00000000000000000081525060200191505060405180910390fd5b84816000019073ffffffffffffffffffffffffffffffffffffffff16908173ffffffffffffffffffffffffffffffffffffffff168152505083816040018181525050600081606001901515908115158152505061120984600954613d0990919063ffffffff16565b60098190555042816080018181525050611222836117ed565b156112645782816020019073ffffffffffffffffffffffffffffffffffffffff16908173ffffffffffffffffffffffffffffffffffffffff16815250506112be565b6000809054906101000a900473ffffffffffffffffffffffffffffffffffffffff16816020019073ffffffffffffffffffffffffffffffffffffffff16908173ffffffffffffffffffffffffffffffffffffffff16815250505b6001600d60008773ffffffffffffffffffffffffffffffffffffffff1673ffffffffffffffffffffffffffffffffffffffff16815260200190815260200160002060006101000a81548160ff0219169083151502179055506001600c829080600181540180825580915050906001820390600052602060002090600502016000909192909190915060008201518160000160006101000a81548173ffffffffffffffffffffffffffffffffffffffff021916908373ffffffffffffffffffffffffffffffffffffffff16021790555060208201518160010160006101000a81548173ffffffffffffffffffffffffffffffffffffffff021916908373ffffffffffffffffffffffffffffffffffffffff1602179055506040820151816002015560608201518160030160006101000a81548160ff02191690831515021790555060808201518160040155505003600e60008773ffffffffffffffffffffffffffffffffffffffff1673ffffffffffffffffffffffffffffffffffffffff1681526020019081526020016000208190555060019150509392505050565b600080611466836117ed565b151561147557600091506115d5565b600e60008473ffffffffffffffffffffffffffffffffffffffff1673ffffffffffffffffffffffffffffffffffffffff1681526020019081526020016000205490508273ffffffffffffffffffffffffffffffffffffffff16600c828154811015156114dd57fe5b906000526020600020906005020160000160009054906101000a900473ffffffffffffffffffffffffffffffffffffffff1673ffffffffffffffffffffffffffffffffffffffff1614151561159a576040517f08c379a00000000000000000000000000000000000000000000000000000000081526004018080602001828103825260178152602001807f656e7469747941646472657373206d69736d617463682e00000000000000000081525060200191505060405180910390fd5b6115a383613261565b156115d057600c818154811015156115b757fe5b90600052602060002090600502016002015491506115d5565b600091505b50919050565b6000806115e7836117ed565b151561165b576040517f08c379a00000000000000000000000000000000000000000000000000000000081526004018080602001828103825260198152602001807f656e746974794164647265737320697320696e76616c69642e0000000000000081525060200191505060405180910390fd5b600e60008473ffffffffffffffffffffffffffffffffffffffff1673ffffffffffffffffffffffffffffffffffffffff1681526020019081526020016000205490506116a683613261565b600c828154811015156116b557fe5b906000526020600020906005020160030160006101000a81548160ff0219169083151502179055506001915050919050565b60008060009054906101000a900473ffffffffffffffffffffffffffffffffffffffff1673ffffffffffffffffffffffffffffffffffffffff163373ffffffffffffffffffffffffffffffffffffffff1614151561174457600080fd5b81600760006101000a81548173ffffffffffffffffffffffffffffffffffffffff021916908373ffffffffffffffffffffffffffffffffffffffff160217905550600760009054906101000a900473ffffffffffffffffffffffffffffffffffffffff16600b60006101000a81548173ffffffffffffffffffffffffffffffffffffffff021916908373ffffffffffffffffffffffffffffffffffffffff160217905550919050565b6000600d60008373ffffffffffffffffffffffffffffffffffffffff1673ffffffffffffffffffffffffffffffffffffffff16815260200190815260200160002060009054906101000a900460ff169050919050565b600c8181548110151561185257fe5b90600052602060002090600502016000915090508060000160009054906101000a900473ffffffffffffffffffffffffffffffffffffffff16908060010160009054906101000a900473ffffffffffffffffffffffffffffffffffffffff16908060020154908060030160009054906101000a900460ff16908060040154905085565b60095481565b60008060009054906101000a900473ffffffffffffffffffffffffffffffffffffffff1673ffffffffffffffffffffffffffffffffffffffff163373ffffffffffffffffffffffffffffffffffffffff1614151561193857600080fd5b6006548210151561194c5760009050611958565b81600581905550600190505b919050565b6000600381111561196a57fe5b600f60009054906101000a900460ff16600381111561198557fe5b148015611999575062015180601054014210155b156119a7576119a6613d25565b5b60038060038111156119b557fe5b600f60009054906101000a900460ff1660038111156119d057fe5b141515611a6b576040517f08c379a00000000000000000000000000000000000000000000000000000000081526004018080602001828103825260278152602001807f46756e6374696f6e2063616e6e6f742062652063616c6c65642061742074686981526020017f732074696d652e0000000000000000000000000000000000000000000000000081525060400191505060405180910390fd5b611a73613d25565b50565b600080611a82836117ed565b1515611af6576040517f08c379a00000000000000000000000000000000000000000000000000000000081526004018080602001828103825260198152602001807f656e746974794164647265737320697320696e76616c69642e0000000000000081525060200191505060405180910390fd5b600e60008473ffffffffffffffffffffffffffffffffffffffff1673ffffffffffffffffffffffffffffffffffffffff1681526020019081526020016000205490508273ffffffffffffffffffffffffffffffffffffffff16600c82815481101515611b5e57fe5b906000526020600020906005020160000160009054906101000a900473ffffffffffffffffffffffffffffffffffffffff1673ffffffffffffffffffffffffffffffffffffffff16141515611c1b576040517f08c379a00000000000000000000000000000000000000000000000000000000081526004018080602001828103825260178152602001807f656e7469747941646472657373206d69736d617463682e00000000000000000081525060200191505060405180910390fd5b600c81815481101515611c2a57fe5b906000526020600020906005020160020154915050919050565b600080611c50846117ed565b1515611cc4576040517f08c379a00000000000000000000000000000000000000000000000000000000081526004018080602001828103825260198152602001807f656e746974794164647265737320697320696e76616c69642e0000000000000081525060200191505060405180910390fd5b600e60008573ffffffffffffffffffffffffffffffffffffffff1673ffffffffffffffffffffffffffffffffffffffff1681526020019081526020016000205490508373ffffffffffffffffffffffffffffffffffffffff16600c82815481101515611d2c57fe5b906000526020600020906005020160000160009054906101000a900473ffffffffffffffffffffffffffffffffffffffff1673ffffffffffffffffffffffffffffffffffffffff16141515611de9576040517f08c379a00000000000000000000000000000000000000000000000000000000081526004018080602001828103825260178152602001807f656e7469747941646472657373206d69736d617463682e00000000000000000081525060200191505060405180910390fd5b82600c82815481101515611df957fe5b90600052602060002090600502016002015410151515611ea7576040517f08c379a00000000000000000000000000000000000000000000000000000000081526004018080602001828103825260268152602001807f776974686472617720616d6f756e74206973206c6172676572207468616e206481526020017f65706f736974000000000000000000000000000000000000000000000000000081525060400191505060405180910390fd5b82600c82815481101515611eb757fe5b90600052602060002090600502016002016000828254039250508190555082600960008282540392505081905550600354600c82815481101515611ef757fe5b9060005260206000209060050201600201541015611f49576000600c82815481101515611f2057fe5b906000526020600020906005020160030160006101000a81548160ff0219169083151502179055505b600191505092915050565b6060600060405180807f6d796675636e74696f6e28290000000000000000000000000000000000000000815250600c0190506040518091039020604051602401604051602081830303815290604052907bffffffffffffffffffffffffffffffffffffffffffffffffffffffff19166020820180517bffffffffffffffffffffffffffffffffffffffffffffffffffffffff8381831617835250505050915073fcfb45679539667f7ed55fa59a15c8cad73d9a4e73ffffffffffffffffffffffffffffffffffffffff16638abdf5aa6040518163ffffffff167c0100000000000000000000000000000000000000000000000000000000028152600401602060405180830381600087803b15801561206b57600080fd5b505af115801561207f573d6000803e3d6000fd5b505050506040513d602081101561209557600080fd5b810190808051906020019092919050505065b5e620f4800001905073fcfb45679539667f7ed55fa59a15c8cad73d9a4e73ffffffffffffffffffffffffffffffffffffffff1663dea8dc4f8262015180420130600062030d40633b9aca008960016040518963ffffffff167c0100000000000000000000000000000000000000000000000000000000028152600401808881526020018773ffffffffffffffffffffffffffffffffffffffff1673ffffffffffffffffffffffffffffffffffffffff1681526020018681526020018581526020018481526020018060200183151515158152602001828103825284818151815260200191508051906020019080838360005b838110156121b557808201518184015260208101905061219a565b50505050905090810190601f1680156121e25780820380516001836020036101000a031916815260200191505b509850505050505050505060408051808303818588803b15801561220557600080fd5b505af1158015612219573d6000803e3d6000fd5b50505050506040513d604081101561223057600080fd5b81019080805190602001909291908051906020019092919050505050505050565b60008061225d836117ed565b156122ec57600e60008473ffffffffffffffffffffffffffffffffffffffff1673ffffffffffffffffffffffffffffffffffffffff168152602001908152602001600020549050600c818154811015156122b357fe5b906000526020600020906005020160010160009054906101000a900473ffffffffffffffffffffffffffffffffffffffff1691506122f1565b600091505b50919050565b6000806000806000600354871080612310575060045487115b1561231e57600094506127a7565b600b60009054906101000a900473ffffffffffffffffffffffffffffffffffffffff1673ffffffffffffffffffffffffffffffffffffffff166323b872dd33308a6040518463ffffffff167c0100000000000000000000000000000000000000000000000000000000028152600401808473ffffffffffffffffffffffffffffffffffffffff1673ffffffffffffffffffffffffffffffffffffffff1681526020018373ffffffffffffffffffffffffffffffffffffffff1673ffffffffffffffffffffffffffffffffffffffff1681526020018281526020019350505050602060405180830381600087803b15801561241757600080fd5b505af115801561242b573d6000803e3d6000fd5b505050506040513d602081101561244157600080fd5b8101908080519060200190929190505050151561246157600094506127a7565b61248860c861247a60058a613ca290919063ffffffff16565b613cda90919063ffffffff16565b93506124b160c86124a360058a613ca290919063ffffffff16565b613cda90919063ffffffff16565b92506124d8836124ca868a613cf090919063ffffffff16565b613cf090919063ffffffff16565b91506124e3866117ed565b15612506576124f286856129b3565b151561250157600094506127a7565b612637565b600b60009054906101000a900473ffffffffffffffffffffffffffffffffffffffff1673ffffffffffffffffffffffffffffffffffffffff1663a9059cbb6000809054906101000a900473ffffffffffffffffffffffffffffffffffffffff16866040518363ffffffff167c0100000000000000000000000000000000000000000000000000000000028152600401808373ffffffffffffffffffffffffffffffffffffffff1673ffffffffffffffffffffffffffffffffffffffff16815260200182815260200192505050602060405180830381600087803b1580156125ec57600080fd5b505af1158015612600573d6000803e3d6000fd5b505050506040513d602081101561261657600080fd5b8101908080519060200190929190505050151561263657600094506127a7565b5b6000600954141561265c576126558383613d0990919063ffffffff16565b915061275b565b612664613bef565b50600090505b600c8054905081101561275a57600c8181548110151561268657fe5b906000526020600020906005020160030160009054906101000a900460ff16156126af5761274d565b612728600c828154811015156126c157fe5b90600052602060002090600502016002015461271a60095461270c87600c878154811015156126ec57fe5b906000526020600020906005020160020154613ca290919063ffffffff16565b613cda90919063ffffffff16565b613d0990919063ffffffff16565b600c8281548110151561273757fe5b9060005260206000209060050201600201819055505b808060010191505061266a565b5b612764336117ed565b156127875761277333836129b3565b151561278257600094506127a7565b6127a2565b612792338388611119565b15156127a157600094506127a7565b5b600194505b5050505092915050565b60045481565b60008060009054906101000a900473ffffffffffffffffffffffffffffffffffffffff1673ffffffffffffffffffffffffffffffffffffffff163373ffffffffffffffffffffffffffffffffffffffff1614151561281457600080fd5b8160088190555060019050919050565b6000809054906101000a900473ffffffffffffffffffffffffffffffffffffffff1673ffffffffffffffffffffffffffffffffffffffff163373ffffffffffffffffffffffffffffffffffffffff1614151561287f57600080fd5b8060048190555050565b6000600381111561289657fe5b600f60009054906101000a900460ff1660038111156128b157fe5b1480156128c5575062015180601054014210155b156128d3576128d2613d25565b5b60008060038111156128e157fe5b600f60009054906101000a900460ff1660038111156128fc57fe5b141515612997576040517f08c379a00000000000000000000000000000000000000000000000000000000081526004018080602001828103825260278152602001807f46756e6374696f6e2063616e6e6f742062652063616c6c65642061742074686981526020017f732074696d652e0000000000000000000000000000000000000000000000000081525060400191505060405180910390fd5b50565b6000600c80549050905090565b60035481565b60055481565b6000806129bf846117ed565b1515612a33576040517f08c379a00000000000000000000000000000000000000000000000000000000081526004018080602001828103825260198152602001807f656e746974794164647265737320697320696e76616c69642e0000000000000081525060200191505060405180910390fd5b600e60008573ffffffffffffffffffffffffffffffffffffffff1673ffffffffffffffffffffffffffffffffffffffff1681526020019081526020016000205490508373ffffffffffffffffffffffffffffffffffffffff16600c82815481101515612a9b57fe5b906000526020600020906005020160000160009054906101000a900473ffffffffffffffffffffffffffffffffffffffff1673ffffffffffffffffffffffffffffffffffffffff16141515612b58576040517f08c379a00000000000000000000000000000000000000000000000000000000081526004018080602001828103825260178152602001807f656e7469747941646472657373206d69736d617463682e00000000000000000081525060200191505060405180910390fd5b82600c82815481101515612b6857fe5b9060005260206000209060050201600201600082825401925050819055508260096000828254019250508190555042600c82815481101515612ba657fe5b906000526020600020906005020160040181905550600191505092915050565b60065481565b6000600854905090565b6000809054906101000a900473ffffffffffffffffffffffffffffffffffffffff1673ffffffffffffffffffffffffffffffffffffffff163373ffffffffffffffffffffffffffffffffffffffff16141515612c3157600080fd5b6000809054906101000a900473ffffffffffffffffffffffffffffffffffffffff1673ffffffffffffffffffffffffffffffffffffffff167ff8df31144d9c2f0f6b59d69b8b98abd5459d07f2742c4df920b25aae33c6482060405160405180910390a260008060006101000a81548173ffffffffffffffffffffffffffffffffffffffff021916908373ffffffffffffffffffffffffffffffffffffffff160217905550565b6000600554905090565b6000806000612cf0336117ed565b1515612d64576040517f08c379a000000000000000000000000000000000000000000000000000000000815260040180806020018281038252600f8152602001807f696e76616c69642061646472657373000000000000000000000000000000000081525060200191505060405180910390fd5b83612d6e33611a76565b10151515612de4576040517f08c379a000000000000000000000000000000000000000000000000000000000815260040180806020018281038252601a8152602001807f6465706f73697465642062616c616e636520697320736d616c6c00000000000081525060200191505060405180910390fd5b600554841080612df5575060065484115b15612e03576000925061309e565b612e0d3385611c44565b1515612e1c576000925061309e565b612e436064612e35600587613ca290919063ffffffff16565b613cda90919063ffffffff16565b9150612e588285613cf090919063ffffffff16565b9050600b60009054906101000a900473ffffffffffffffffffffffffffffffffffffffff1673ffffffffffffffffffffffffffffffffffffffff1663a9059cbb33836040518363ffffffff167c0100000000000000000000000000000000000000000000000000000000028152600401808373ffffffffffffffffffffffffffffffffffffffff1673ffffffffffffffffffffffffffffffffffffffff16815260200182815260200192505050602060405180830381600087803b158015612f1f57600080fd5b505af1158015612f33573d6000803e3d6000fd5b505050506040513d6020811015612f4957600080fd5b81019080805190602001909291905050501515612f69576000925061309e565b600b60009054906101000a900473ffffffffffffffffffffffffffffffffffffffff1673ffffffffffffffffffffffffffffffffffffffff1663a9059cbb6000809054906101000a900473ffffffffffffffffffffffffffffffffffffffff16846040518363ffffffff167c0100000000000000000000000000000000000000000000000000000000028152600401808373ffffffffffffffffffffffffffffffffffffffff1673ffffffffffffffffffffffffffffffffffffffff16815260200182815260200192505050602060405180830381600087803b15801561304f57600080fd5b505af1158015613063573d6000803e3d6000fd5b505050506040513d602081101561307957600080fd5b81019080805190602001909291905050501515613099576000925061309e565b600192505b5050919050565b6000809054906101000a900473ffffffffffffffffffffffffffffffffffffffff1673ffffffffffffffffffffffffffffffffffffffff163373ffffffffffffffffffffffffffffffffffffffff1614151561310057600080fd5b6000809054906101000a900473ffffffffffffffffffffffffffffffffffffffff1673ffffffffffffffffffffffffffffffffffffffff16ff5b60008060009054906101000a900473ffffffffffffffffffffffffffffffffffffffff16905090565b6000809054906101000a900473ffffffffffffffffffffffffffffffffffffffff1681565b6000600954905090565b6000600c80549050905090565b600760009054906101000a900473ffffffffffffffffffffffffffffffffffffffff1681565b60008060009054906101000a900473ffffffffffffffffffffffffffffffffffffffff1673ffffffffffffffffffffffffffffffffffffffff163373ffffffffffffffffffffffffffffffffffffffff1614151561322257600080fd5b600454821015156132365760009050613242565b81600381905550600190505b919050565b61324f611f54565b565b60085481565b61325f611f54565b565b60008061326d836117ed565b15156132e1576040517f08c379a00000000000000000000000000000000000000000000000000000000081526004018080602001828103825260198152602001807f656e746974794164647265737320697320696e76616c69642e0000000000000081525060200191505060405180910390fd5b600e60008473ffffffffffffffffffffffffffffffffffffffff1673ffffffffffffffffffffffffffffffffffffffff1681526020019081526020016000205490508273ffffffffffffffffffffffffffffffffffffffff16600c8281548110151561334957fe5b906000526020600020906005020160000160009054906101000a900473ffffffffffffffffffffffffffffffffffffffff1673ffffffffffffffffffffffffffffffffffffffff16141515613406576040517f08c379a00000000000000000000000000000000000000000000000000000000081526004018080602001828103825260178152602001807f656e7469747941646472657373206d69736d617463682e00000000000000000081525060200191505060405180910390fd5b600354600c8281548110151561341857fe5b90600052602060002090600502016002015410156134395760009150613487565b61344f6001600854613ca290919063ffffffff16565b600c8281548110151561345e57fe5b90600052602060002090600502016004015401421015156134825760019150613487565b600091505b50919050565b600f60009054906101000a900460ff1681565b600a5481565b6000806134b2836117ed565b1515613526576040517f08c379a00000000000000000000000000000000000000000000000000000000081526004018080602001828103825260198152602001807f656e746974794164647265737320697320696e76616c69642e0000000000000081525060200191505060405180910390fd5b600e60008473ffffffffffffffffffffffffffffffffffffffff1673ffffffffffffffffffffffffffffffffffffffff1681526020019081526020016000205490508273ffffffffffffffffffffffffffffffffffffffff16600c8281548110151561358e57fe5b906000526020600020906005020160000160009054906101000a900473ffffffffffffffffffffffffffffffffffffffff1673ffffffffffffffffffffffffffffffffffffffff1614151561364b576040517f08c379a00000000000000000000000000000000000000000000000000000000081526004018080602001828103825260178152602001807f656e7469747941646472657373206d69736d617463682e00000000000000000081525060200191505060405180910390fd5b600c8181548110151561365a57fe5b906000526020600020906005020160030160009054906101000a900460ff16915050919050565b600061368b613bef565b905090565b60105481565b6000600354905090565b6000809054906101000a900473ffffffffffffffffffffffffffffffffffffffff1673ffffffffffffffffffffffffffffffffffffffff163373ffffffffffffffffffffffffffffffffffffffff161415156136fb57600080fd5b8060038190555050565b6000600381111561371257fe5b600f60009054906101000a900460ff16600381111561372d57fe5b148015613741575062015180601054014210155b1561374f5761374e613d25565b5b600280600381111561375d57fe5b600f60009054906101000a900460ff16600381111561377857fe5b141515613813576040517f08c379a00000000000000000000000000000000000000000000000000000000081526004018080602001828103825260278152602001807f46756e6374696f6e2063616e6e6f742062652063616c6c65642061742074686981526020017f732074696d652e0000000000000000000000000000000000000000000000000081525060400191505060405180910390fd5b61381b613d25565b50565b6000600381111561382b57fe5b600f60009054906101000a900460ff16600381111561384657fe5b14801561385a575062015180601054014210155b1561386857613867613d25565b5b600180600381111561387657fe5b600f60009054906101000a900460ff16600381111561389157fe5b14151561392c576040517f08c379a00000000000000000000000000000000000000000000000000000000081526004018080602001828103825260278152602001807f46756e6374696f6e2063616e6e6f742062652063616c6c65642061742074686981526020017f732074696d652e0000000000000000000000000000000000000000000000000081525060400191505060405180910390fd5b613934613d25565b50565b6000600381111561394457fe5b600f60009054906101000a900460ff16600381111561395f57fe5b148015613973575062015180601054014210155b1561398157613980613d25565b5b600080600381111561398f57fe5b600f60009054906101000a900460ff1660038111156139aa57fe5b141515613a45576040517f08c379a00000000000000000000000000000000000000000000000000000000081526004018080602001828103825260278152602001807f46756e6374696f6e2063616e6e6f742062652063616c6c65642061742074686981526020017f732074696d652e0000000000000000000000000000000000000000000000000081525060400191505060405180910390fd5b50565b600260009054906101000a900473ffffffffffffffffffffffffffffffffffffffff1681565b60008060009054906101000a900473ffffffffffffffffffffffffffffffffffffffff1673ffffffffffffffffffffffffffffffffffffffff163373ffffffffffffffffffffffffffffffffffffffff16141515613acb57600080fd5b60045484101515613adf5760009050613b0d565b60065483101515613af35760009050613b0d565b836003819055508260058190555081600881905550600190505b9392505050565b6000809054906101000a900473ffffffffffffffffffffffffffffffffffffffff1673ffffffffffffffffffffffffffffffffffffffff163373ffffffffffffffffffffffffffffffffffffffff16141515613b6f57600080fd5b613b7881613dc9565b50565b6000809054906101000a900473ffffffffffffffffffffffffffffffffffffffff1673ffffffffffffffffffffffffffffffffffffffff163373ffffffffffffffffffffffffffffffffffffffff16141515613bd657600080fd5b8073ffffffffffffffffffffffffffffffffffffffff16ff5b6000806000809050600091505b600c80549050821015613c9a57613c52600c83815481101515613c1b57fe5b906000526020600020906005020160000160009054906101000a900473ffffffffffffffffffffffffffffffffffffffff166115db565b50600c82815481101515613c6257fe5b906000526020600020906005020160030160009054906101000a900460ff1615613c8d576001810190505b8180600101925050613bfc565b809250505090565b600080831415613cb55760009050613cd4565b8183029050818382811515613cc657fe5b04141515613cd057fe5b8090505b92915050565b60008183811515613ce757fe5b04905092915050565b6000828211151515613cfe57fe5b818303905092915050565b60008183019050828110151515613d1c57fe5b80905092915050565b600380811115613d3157fe5b600f60009054906101000a900460ff166003811115613d4c57fe5b1415613d7b576000600f60006101000a81548160ff02191690836003811115613d7157fe5b0217905550613dc7565b6001600f60009054906101000a900460ff166003811115613d9857fe5b016003811115613da457fe5b600f60006101000a81548160ff02191690836003811115613dc157fe5b02179055505b565b600073ffffffffffffffffffffffffffffffffffffffff168173ffffffffffffffffffffffffffffffffffffffff1614151515613e0557600080fd5b8073ffffffffffffffffffffffffffffffffffffffff166000809054906101000a900473ffffffffffffffffffffffffffffffffffffffff1673ffffffffffffffffffffffffffffffffffffffff167f8be0079c531659141344cd1fd0a4f28419497f9722a3daafe3b4186f6b6457e060405160405180910390a3806000806101000a81548173ffffffffffffffffffffffffffffffffffffffff021916908373ffffffffffffffffffffffffffffffffffffffff16021790555050565b60a060405190810160405280600073ffffffffffffffffffffffffffffffffffffffff168152602001600073ffffffffffffffffffffffffffffffffffffffff168152602001600081526020016000151581526020016000815250905600a165627a7a72305820f273e3805f4da22891134c079262db91260476c7a5c916de7babbf8f2ecab5a20029",
  "source": "pragma solidity ^0.4.24;\n\nimport \"openzeppelin-solidity/contracts/ownership/Ownable.sol\";        // set specific function for owner only\nimport \"openzeppelin-solidity/contracts/ownership/Contactable.sol\";    // contract has contact info\nimport \"openzeppelin-solidity/contracts/lifecycle/Destructible.sol\";   // contract may be killed\nimport \"openzeppelin-solidity/contracts/math/SafeMath.sol\";            // safe mathematics functions\nimport \"openzeppelin-solidity/contracts/token/ERC20/ERC20.sol\";        // ERC20 interface\n// import \"./HackbertToken.sol\";\n// interface Aion\ncontract Aion {\n    uint256 public serviceFee;\n    function ScheduleCall(\n        uint256 blocknumber, address to, uint256 value, uint256 gaslimit, uint256 gasprice, bytes data, bool schedType\n        ) public payable returns (uint,address);\n\n}\n/**\n    safeMath apply for uint\n */\n\ncontract MainContract is Ownable, Destructible {\n    using SafeMath for uint;\n    Aion aion;\n    address public ethHolder;\n\n    uint public minimumDeposit;         // the minimum Deposit allowed\n    uint public maximumDeposit;         // the maximum Deposit allowed\n    uint public minimumWithdraw;         // the minimum Withdraw allowed\n    uint public maximumWithdraw;         // the maximum Withdraw allowed\n    address public tokenAddress;    // address of the token being used for this contract\n    uint public activationDays;\n    uint public totalDepositedToken;\n    uint public totalEthRewards;\n    ERC20 private token;\n    // HackbertToken private token;\n    enum Stages {\n        AcceptingDepositAndWithdraw,\n        BalanceCheck,\n        DevideStage,\n        ApproveUsers\n    }\n    /////////////////////////////////////////////////////////////////////////////////////////////////////////////////// data array\n    ///////////////////////////////////////////////////////////////////////////////////////////////////////////////////////////////////////////////////////////////////////////////////////////////////////\n    struct EntityStruct {\n    address entityAddress;\n    address refferalAddress;\n    uint entityData;\n    bool isActive ;\n    uint updateTime ;\n    }\n\n    EntityStruct[] public entityStructs;\n    mapping(address => bool) knownEntity;\n    mapping(address => uint) rowEntity;\n    constructor(address _hackbertToken) public payable {\n        owner = msg.sender;         // set the owner of this contract to the creator of the contract\n        token = ERC20(_hackbertToken);\n       //scheduleMyfucntion();\n        minimumDeposit = 10 * (uint256(10) ** 18);\n        maximumDeposit = 1000000 * (uint256(10) ** 18);\n        minimumWithdraw = 10 * (uint256(10) ** 18);\n        maximumWithdraw = 1000000 * (uint256(10) ** 18);\n        activationDays = 7;\n        totalDepositedToken = 0;\n        totalEthRewards = 0;\n    }\n    function getOwner() public view returns(address){\n      return owner;\n   }\n    function setAdminParams(uint _minimumDeositAmount, uint _minimumWithdrawAmount, uint _activationdays)  external onlyOwner returns(bool){\n        if(_minimumDeositAmount >= maximumDeposit) return false;\n        if(_minimumWithdrawAmount >= maximumWithdraw) return false;\n        minimumDeposit = _minimumDeositAmount;\n        minimumWithdraw = _minimumWithdrawAmount;\n        activationDays = _activationdays;\n        return true;\n    }\n    function getMinimumDepositAmount() public view returns(uint) {\n        return minimumDeposit;\n    }\n    function getMinimumWithdrawAmount() public view returns(uint) {\n        return minimumWithdraw;\n    }\n    function getActivationDays() public view returns(uint) {\n        return activationDays;\n    }\n    function setMinimumDepositAmount(uint _value) external onlyOwner returns(bool) {\n        if(_value >= maximumDeposit) return false;\n        minimumDeposit = _value;\n        return true;\n    }\n    function setMinimumWithdrawAmount(uint _value) external onlyOwner returns(bool) {\n        if(_value >= maximumWithdraw) return false;\n        minimumWithdraw = _value;\n        return true;\n    }\n    function setActivationDays(uint _value) external onlyOwner returns(bool) {\n        activationDays = _value;\n        return true;\n    }\n\n    function isEntity(address entityAddress) public view returns(bool isIndeed) {\n        return knownEntity[entityAddress];\n    }\n    function isActivated(address entityAddress) public view returns(bool) {\n        require(isEntity(entityAddress), \"entityAddress is invalid.\");\n        uint rowNumber = rowEntity[entityAddress];\n        require(entityStructs[rowNumber].entityAddress == entityAddress, \"entityAddress mismatch.\");\n        return entityStructs[rowNumber].isActive ;\n\n    }\n    function getActivateState(address entityAddress) public view returns(bool){\n        require(isEntity(entityAddress), \"entityAddress is invalid.\");\n        uint rowNumber = rowEntity[entityAddress];\n        require(entityStructs[rowNumber].entityAddress == entityAddress, \"entityAddress mismatch.\");\n        if(entityStructs[rowNumber].entityData < minimumDeposit)\n            return false;\n        //modify when deploy on mainnet\n        // if(now >= entityStructs[rowNumber].updateTime + activationDays.mul(1 days)) {\n        if(now >= entityStructs[rowNumber].updateTime + activationDays.mul(1 seconds)) {\n            return true;\n        }\n        return false;\n    }\n    function checkActivate(address entityAddress) public returns(bool){\n        require(isEntity(entityAddress), \"entityAddress is invalid.\");\n        uint rowNumber = rowEntity[entityAddress];\n        entityStructs[rowNumber].isActive = getActivateState(entityAddress);\n        return true;\n    }\n    function checkActivateAll() public view returns(uint){\n        uint i;\n        uint totalActivatedUsers = 0;\n        for(i = 0; i < entityStructs.length; i++){\n            checkActivate(entityStructs[i].entityAddress);\n            if(entityStructs[i].isActive){\n                totalActivatedUsers += 1;\n            }\n        }\n        return totalActivatedUsers;\n    }\n    function getTotalDepositedToken() public view returns(uint){\n        return totalDepositedToken;\n    }\n    function getDepositedTokenOfUser(address entityAddress) public view returns(uint){\n        if(!isEntity(entityAddress))\n            return 0;\n        uint rowNumber = rowEntity[entityAddress];\n        require(entityStructs[rowNumber].entityAddress == entityAddress, \"entityAddress mismatch.\");\n        if(getActivateState(entityAddress))\n            return entityStructs[rowNumber].entityData ;\n        else\n            return 0;\n    }\n    function() public payable {\n        if(msg.value > 0){\n            totalEthRewards += msg.value;\n            divideProfit();\n        }\n    }\n    function divideProfit() internal returns(bool)\n    {\n        uint i;\n        checkActivateAll();\n        if(totalDepositedToken == 0) return false;\n        uint totalToken = totalDepositedToken;\n        uint totalProfit;\n        // if(!(msg.sender == address(this))){\n        //     address(this).transfer(_value);\n        // }\n        // return true;\n        totalProfit = address(this).balance;\n        uint sendAmount;\n        uint gasprice = 200000;\n        gasprice = gasprice.mul(40); //40 fast , 4 : avg , 0.6 : slow\n        for(i = 0; i < entityStructs.length; i++){\n            if(!entityStructs[i].isActive) continue;\n            sendAmount = totalProfit.mul(entityStructs[i].entityData).div(totalToken);\n            if(sendAmount <= gasprice) continue;\n            sendAmount = sendAmount.sub(gasprice);\n            entityStructs[i].entityAddress.transfer(sendAmount);\n        }\n    }\n    function getEntityCount() public view returns(uint entityCount) {\n        return entityStructs.length;\n    }\n    function getTotalUsers() public view returns(uint) {\n        return entityStructs.length;\n    }\n    function getActivatedUsers() public view returns(uint) {\n        return checkActivateAll();\n    }\n    function newEntity(address entityAddress, uint entityData, address referral) public returns(bool) {\n        require(!isEntity(entityAddress),\"entityAddress is exist.\");\n        EntityStruct memory newEntity;\n        newEntity.entityAddress = entityAddress;\n        newEntity.entityData = entityData;\n        ////develop stage the isActive will be true /////////////////////////////////////////\n        newEntity.isActive = false;\n        // newEntity.isActive = true;\n        totalDepositedToken = totalDepositedToken.add(entityData);\n        newEntity.updateTime = now;\n        if(isEntity(referral))\n            newEntity.refferalAddress = referral;\n        else\n            newEntity.refferalAddress = owner;\n        knownEntity[entityAddress] = true;\n        rowEntity[entityAddress] = entityStructs.push(newEntity) - 1;\n        return true;\n    }\n\n    function depositEntity(address entityAddress, uint entityData) public returns(bool success) {\n        require(isEntity(entityAddress), \"entityAddress is invalid.\");\n        uint rowNumber = rowEntity[entityAddress];\n        require(entityStructs[rowNumber].entityAddress == entityAddress, \"entityAddress mismatch.\");\n        entityStructs[rowNumber].entityData += entityData;\n        totalDepositedToken += entityData;\n        entityStructs[rowNumber].updateTime = now ;\n        return true;\n    }\n    function withdrawEntity(address entityAddress, uint entityData) public returns(bool success) {\n        require(isEntity(entityAddress), \"entityAddress is invalid.\");\n        uint rowNumber = rowEntity[entityAddress];\n        require(entityStructs[rowNumber].entityAddress == entityAddress, \"entityAddress mismatch.\");\n        require(entityStructs[rowNumber].entityData >= entityData, \"withdraw amount is larger than deposit\");\n        entityStructs[rowNumber].entityData -= entityData;\n        totalDepositedToken -= entityData;\n        if(entityStructs[rowNumber].entityData < minimumDeposit)\n            entityStructs[rowNumber].isActive = false;\n//        entityStructs[rowNumber].updateTime = now ;\n        return true;\n    }\n    function getTokenBalance(address entityAddress) public view returns(uint depositedBalance) {\n        require(isEntity(entityAddress), \"entityAddress is invalid.\");\n        uint rowNumber = rowEntity[entityAddress];\n        require(entityStructs[rowNumber].entityAddress == entityAddress, \"entityAddress mismatch.\");\n        return entityStructs[rowNumber].entityData;\n    }\n    function getReferralAddress(address entityAddress) public view returns(address referralAddress){\n        if(isEntity(entityAddress)){\n            uint rowNumber = rowEntity[entityAddress];\n            return entityStructs[rowNumber].refferalAddress;\n        }\n        return 0x0;\n    }\n    //////////////////////////////////////////////////////////////////////////////////////////////////////////////////////////////////////////////////\n    //////////////////////////////////////////////////////////////////////////////////////////////////////////////////////////////////////////////////\n    // This is the current stage.\n    Stages public stage = Stages.AcceptingDepositAndWithdraw;\n    /**\n    */\n    /// @notice sets the token that is to be used for this Main contract\n    /// @param _token The address of the ERC20 token\n    function setToken(address _token) external onlyOwner returns (bool) {\n        tokenAddress = _token;\n        token = ERC20(tokenAddress);\n    }\n\n    /// @notice sets the minimum Deposit allowed\n    /// @param _minimumDeposit minimum Deposit allowed\n    function setMinimumDeposit(uint _minimumDeposit) external onlyOwner {\n        minimumDeposit = _minimumDeposit;\n    }\n\n    /// @notice sets the maximum deposit allowed\n    /// @param _maximumDeposit maximum deposit allowed\n    function setMaximumDeposit(uint _maximumDeposit) external onlyOwner {\n        maximumDeposit = _maximumDeposit;\n    }\n\n\n\n\n    function start() public {\n        scheduleMyfucntion();\n    }\n    function scheduleMyfucntion() public {\n        //aion = Aion(0xFcFB45679539667f7ed55FA59A15c8Cad73d9a4E); //Ropsten\n        //aion = Aion(0xCBe7AB529A147149b1CF982C3a169f728bC0C3CA); //Mainnet\n        bytes memory data = abi.encodeWithSelector(bytes4(keccak256('myfucntion()')));\n        uint callCost = 200000*1e9 + Aion(0xFcFB45679539667f7ed55FA59A15c8Cad73d9a4E).serviceFee();\n        //uint callCost = 200000*1e9 ;\n        Aion(0xFcFB45679539667f7ed55FA59A15c8Cad73d9a4E).ScheduleCall.value(callCost)(\n            block.timestamp + 1 days, address(this), 0, 200000, 1e9, data, true);\n    }\n    function myfucntion() public {\n        // do your task here and call again the function to schedule\n        scheduleMyfucntion();\n    }\n\n    uint public creationTime = now;\n    modifier atStage(Stages _stage) {\n        require(\n            stage == _stage,\n            \"Function cannot be called at this time.\"\n        );\n        _;\n    }\n    function nextStage() internal {\n        if(stage == Stages.ApproveUsers)\n            stage = Stages.AcceptingDepositAndWithdraw;\n        else\n            stage = Stages(uint(stage) + 1);\n    }\n    // Perform timed transitions. Be sure to mention\n    // this modifier first, otherwise the guards\n    // will not take the new stage into account.\n    modifier timedTransitions() {\n        if (stage == Stages.AcceptingDepositAndWithdraw &&\n                    now >= creationTime + 1 days)\n            nextStage();\n        // The other stages transition by transaction\n        _;\n    }\n    // This modifier goes to the next stage\n    // after the function is done.\n    modifier transitionNext()\n    {\n        _;\n        nextStage();\n    }\n    // Order of the modifiers matters here!\n    function Deposit()\n        public\n        payable\n        timedTransitions\n        atStage(Stages.AcceptingDepositAndWithdraw)\n    {\n        // We will not implement that here\n    }\n    function Withdraw()\n        public\n        payable\n        timedTransitions\n        atStage(Stages.AcceptingDepositAndWithdraw)\n    {\n        // We will not implement that here\n    }\n    function checkBalanceOfEthHolder()\n    public\n    timedTransitions\n    atStage(Stages.BalanceCheck)\n    transitionNext\n    {\n\n    }\n\n    function DivideETH()\n    public\n    timedTransitions\n    atStage(Stages.DevideStage)\n    transitionNext\n    {\n    }\n    function ApproveUsers()\n    public\n    timedTransitions\n    atStage(Stages.ApproveUsers)\n    transitionNext\n    {\n\n    }\n\n    ////public interfaces\n    function placeDeposit(uint _value, address referral) external returns (bool){\n        // check that the bet is within the min and max bet limits\n        if ((_value < minimumDeposit) || (_value > maximumDeposit)) return false;\n        // transfer the required tokens to this contract\n\n        if (!token.transferFrom(msg.sender, this, _value)) return false;\n        uint referral_fee = _value.mul(5).div(200);\n        uint community_fee = _value.mul(5).div(200);\n        uint mine = _value.sub(referral_fee).sub(community_fee);\n        if(isEntity(referral)){\n            if(!depositEntity(referral, referral_fee)) return false ;\n        }\n        else{\n            if(!token.transfer(owner,referral_fee)) return false;\n        }\n        ///divide comunity fee\n        if(totalDepositedToken == 0){\n            mine = mine.add(community_fee);\n        }\n        else{\n            uint i;\n            checkActivateAll();\n            for(i = 0; i < entityStructs.length; i++){\n                if(entityStructs[i].isActive) continue;\n                entityStructs[i].entityData = entityStructs[i].entityData.mul(community_fee).div(totalDepositedToken).add(entityStructs[i].entityData);\n            }\n        }\n        //token transfered so can now create a user or update user balance\n        if(isEntity(msg.sender))\n        {\n            if(!depositEntity(msg.sender, mine)) return false ;\n        }\n        else{\n            if(!newEntity(msg.sender,mine, referral)) return false;\n        }\n        return true;\n    }\n    function placeWithdraw(uint _value) external returns (bool){\n        require(isEntity(msg.sender), \"invalid address\");\n        // checkActivate(msg.sender);\n        require(getTokenBalance(msg.sender) >= _value, \"deposited balance is small\");\n        // check that the bet is within the min and max bet limits\n        if ((_value < minimumWithdraw) || (_value > maximumWithdraw)) return false;\n        if(!withdrawEntity(msg.sender, _value)) return false ;\n        // transfer the required tokens to this contract\n        uint fee = _value.mul(5).div(100);\n        uint mine = _value.sub(fee);\n        if (!token.transfer(msg.sender, mine)) return false;\n        if (!token.transfer(owner, fee)) return false;\n\n        return true;\n    }\n\n}",
  "sourcePath": "/home/ubuntu/oz-workspace/contracts/MainContract.sol",
  "compiler": {
    "name": "solc",
    "version": "0.4.24+commit.e67f0147.Emscripten.clang"
  },
  "schemaVersion": "3.0.23",
  "updatedAt": "2020-03-09T10:49:53.910Z",
  "networkType": "ethereum",
  "devdoc": {
    "methods": {
      "destroy()": {
        "details": "Transfers the current balance to the owner and terminates the contract."
      },
      "renounceOwnership()": {
        "details": "Allows the current owner to relinquish control of the contract."
      },
      "setMaximumDeposit(uint256)": {
        "params": {
          "_maximumDeposit": "maximum deposit allowed"
        }
      },
      "setMinimumDeposit(uint256)": {
        "params": {
          "_minimumDeposit": "minimum Deposit allowed"
        }
      },
      "setToken(address)": {
        "params": {
          "_token": "The address of the ERC20 token"
        }
      },
      "transferOwnership(address)": {
        "details": "Allows the current owner to transfer control of the contract to a newOwner.",
        "params": {
          "_newOwner": "The address to transfer ownership to."
        }
      }
    }
  },
  "userdoc": {
    "methods": {
      "placeDeposit(uint256,address)": {
        "notice": "/public interfaces"
      },
      "renounceOwnership()": {
        "notice": "Renouncing to ownership will leave the contract without an owner. It will not be possible to call the functions with the `onlyOwner` modifier anymore."
      },
      "setMaximumDeposit(uint256)": {
        "notice": "sets the maximum deposit allowed"
      },
      "setMinimumDeposit(uint256)": {
        "notice": "sets the minimum Deposit allowed"
      },
      "setToken(address)": {
        "notice": "sets the token that is to be used for this Main contract"
      }
    }
  }
}