{
  "contractName": "VoteContract",
  "abi": [
    {
      "constant": true,
      "inputs": [
        {
          "name": "",
          "type": "uint256"
        }
      ],
      "name": "proposals",
      "outputs": [
        {
          "name": "title",
          "type": "string"
        },
        {
          "name": "voteCountPos",
          "type": "uint256"
        },
        {
          "name": "voteCountNeg",
          "type": "uint256"
        },
        {
          "name": "voteCountAbs",
          "type": "uint256"
        }
      ],
      "payable": false,
      "stateMutability": "view",
      "type": "function"
    },
    {
      "constant": false,
      "inputs": [],
      "name": "renounceOwnership",
      "outputs": [],
      "payable": false,
      "stateMutability": "nonpayable",
      "type": "function"
    },
    {
      "constant": true,
      "inputs": [],
      "name": "owner",
      "outputs": [
        {
          "name": "",
          "type": "address"
        }
      ],
      "payable": false,
      "stateMutability": "view",
      "type": "function"
    },
    {
      "constant": false,
      "inputs": [
        {
          "name": "_newOwner",
          "type": "address"
        }
      ],
      "name": "transferOwnership",
      "outputs": [],
      "payable": false,
      "stateMutability": "nonpayable",
      "type": "function"
    },
    {
      "anonymous": false,
      "inputs": [],
      "name": "CreatedProposalEvent",
      "type": "event"
    },
    {
      "anonymous": false,
      "inputs": [],
      "name": "CreatedVoteEvent",
      "type": "event"
    },
    {
      "anonymous": false,
      "inputs": [
        {
          "indexed": true,
          "name": "previousOwner",
          "type": "address"
        }
      ],
      "name": "OwnershipRenounced",
      "type": "event"
    },
    {
      "anonymous": false,
      "inputs": [
        {
          "indexed": true,
          "name": "previousOwner",
          "type": "address"
        },
        {
          "indexed": true,
          "name": "newOwner",
          "type": "address"
        }
      ],
      "name": "OwnershipTransferred",
      "type": "event"
    },
    {
      "constant": true,
      "inputs": [],
      "name": "getNumProposals",
      "outputs": [
        {
          "name": "",
          "type": "uint256"
        }
      ],
      "payable": false,
      "stateMutability": "view",
      "type": "function"
    },
    {
      "constant": true,
      "inputs": [
        {
          "name": "proposalInt",
          "type": "uint256"
        }
      ],
      "name": "getProposal",
      "outputs": [
        {
          "name": "",
          "type": "uint256"
        },
        {
          "name": "",
          "type": "string"
        },
        {
          "name": "",
          "type": "uint256"
        },
        {
          "name": "",
          "type": "uint256"
        },
        {
          "name": "",
          "type": "uint256"
        },
        {
          "name": "",
          "type": "address[]"
        }
      ],
      "payable": false,
      "stateMutability": "view",
      "type": "function"
    },
    {
      "constant": false,
      "inputs": [
        {
          "name": "title",
          "type": "string"
        }
      ],
      "name": "addProposal",
      "outputs": [
        {
          "name": "",
          "type": "bool"
        }
      ],
      "payable": false,
      "stateMutability": "nonpayable",
      "type": "function"
    },
    {
      "constant": false,
      "inputs": [
        {
          "name": "proposalInt",
          "type": "uint256"
        },
        {
          "name": "voteValue",
          "type": "uint256"
        }
      ],
      "name": "vote",
      "outputs": [
        {
          "name": "",
          "type": "bool"
        }
      ],
      "payable": false,
      "stateMutability": "nonpayable",
      "type": "function"
    }
  ],
  "bytecode": "0x6080604052336000806101000a81548173ffffffffffffffffffffffffffffffffffffffff021916908373ffffffffffffffffffffffffffffffffffffffff160217905550610e08806100536000396000f30060806040526004361061008e576000357c0100000000000000000000000000000000000000000000000000000000900463ffffffff168063013cf08b146100935780632fdae3c51461014e578063715018a6146101cf578063798974dd146101e65780638da5cb5b14610211578063b384abef14610268578063c7f758a8146102b7578063f2fde38b146103c1575b600080fd5b34801561009f57600080fd5b506100be60048036038101908080359060200190929190505050610404565b6040518080602001858152602001848152602001838152602001828103825286818151815260200191508051906020019080838360005b838110156101105780820151818401526020810190506100f5565b50505050905090810190601f16801561013d5780820380516001836020036101000a031916815260200191505b509550505050505060405180910390f35b34801561015a57600080fd5b506101b5600480360381019080803590602001908201803590602001908080601f01602080910402602001604051908101604052809392919081815260200183838082843782019150505050505091929192905050506104db565b604051808215151515815260200191505060405180910390f35b3480156101db57600080fd5b506101e46105ad565b005b3480156101f257600080fd5b506101fb6106af565b6040518082815260200191505060405180910390f35b34801561021d57600080fd5b506102266106bc565b604051808273ffffffffffffffffffffffffffffffffffffffff1673ffffffffffffffffffffffffffffffffffffffff16815260200191505060405180910390f35b34801561027457600080fd5b5061029d60048036038101908080359060200190929190803590602001909291905050506106e1565b604051808215151515815260200191505060405180910390f35b3480156102c357600080fd5b506102e260048036038101908080359060200190929190505050610948565b604051808781526020018060200186815260200185815260200184815260200180602001838103835288818151815260200191508051906020019080838360005b8381101561033e578082015181840152602081019050610323565b50505050905090810190601f16801561036b5780820380516001836020036101000a031916815260200191505b50838103825284818151815260200191508051906020019060200280838360005b838110156103a757808201518184015260208101905061038c565b505050509050019850505050505050505060405180910390f35b3480156103cd57600080fd5b50610402600480360381019080803573ffffffffffffffffffffffffffffffffffffffff169060200190929190505050610ad9565b005b60018181548110151561041357fe5b9060005260206000209060060201600091509050806000018054600181600116156101000203166002900480601f0160208091040260200160405190810160405280929190818152602001828054600181600116156101000203166002900480156104bf5780601f10610494576101008083540402835291602001916104bf565b820191906000526020600020905b8154815290600101906020018083116104a257829003601f168201915b5050505050908060010154908060020154908060030154905084565b60006104e5610c3a565b7f0616bfbef63fbb3fb188ace13631901ead91828d4bc417e8d62b118462b60ff960405160405180910390a1828160000181905250600181908060018154018082558091505090600182039060005260206000209060060201600090919290919091506000820151816000019080519060200190610564929190610c6a565b50602082015181600101556040820151816002015560608201518160030155608082015181600501908051906020019061059f929190610cea565b505050506001915050919050565b6000809054906101000a900473ffffffffffffffffffffffffffffffffffffffff1673ffffffffffffffffffffffffffffffffffffffff163373ffffffffffffffffffffffffffffffffffffffff1614151561060857600080fd5b6000809054906101000a900473ffffffffffffffffffffffffffffffffffffffff1673ffffffffffffffffffffffffffffffffffffffff167ff8df31144d9c2f0f6b59d69b8b98abd5459d07f2742c4df920b25aae33c6482060405160405180910390a260008060006101000a81548173ffffffffffffffffffffffffffffffffffffffff021916908373ffffffffffffffffffffffffffffffffffffffff160217905550565b6000600180549050905090565b6000809054906101000a900473ffffffffffffffffffffffffffffffffffffffff1681565b600080600015156001858154811015156106f757fe5b906000526020600020906006020160040160003373ffffffffffffffffffffffffffffffffffffffff1673ffffffffffffffffffffffffffffffffffffffff16815260200190815260200160002060010160009054906101000a900460ff161515141561093c57600183148061076d5750600283145b806107785750600383145b151561078357600080fd5b60018481548110151561079257fe5b9060005260206000209060060201905060018314156107c357600181600101600082825401925050819055506107f9565b60028314156107e457600181600201600082825401925050819055506107f8565b600181600301600082825401925050819055505b5b828160040160003373ffffffffffffffffffffffffffffffffffffffff1673ffffffffffffffffffffffffffffffffffffffff1681526020019081526020016000206000018190555060018160040160003373ffffffffffffffffffffffffffffffffffffffff1673ffffffffffffffffffffffffffffffffffffffff16815260200190815260200160002060010160006101000a81548160ff021916908315150217905550806005013390806001815401808255809150509060018203906000526020600020016000909192909190916101000a81548173ffffffffffffffffffffffffffffffffffffffff021916908373ffffffffffffffffffffffffffffffffffffffff160217905550507fc8d0f117c265f186f11ddd2b492c5183055634fe9b702704eb82c0fe0466364460405160405180910390a160019150610941565b600091505b5092915050565b60006060600080600060606000806001805490501115610ace5760018881548110151561097157fe5b90600052602060002090600602019050878160000182600101548360020154846003015485600501848054600181600116156101000203166002900480601f016020809104026020016040519081016040528092919081815260200182805460018160011615610100020316600290048015610a2e5780601f10610a0357610100808354040283529160200191610a2e565b820191906000526020600020905b815481529060010190602001808311610a1157829003601f168201915b5050505050945080805480602002602001604051908101604052809291908181526020018280548015610ab657602002820191906000526020600020905b8160009054906101000a900473ffffffffffffffffffffffffffffffffffffffff1673ffffffffffffffffffffffffffffffffffffffff1681526020019060010190808311610a6c575b50505050509050965096509650965096509650610acf565b5b5091939550919395565b6000809054906101000a900473ffffffffffffffffffffffffffffffffffffffff1673ffffffffffffffffffffffffffffffffffffffff163373ffffffffffffffffffffffffffffffffffffffff16141515610b3457600080fd5b610b3d81610b40565b50565b600073ffffffffffffffffffffffffffffffffffffffff168173ffffffffffffffffffffffffffffffffffffffff1614151515610b7c57600080fd5b8073ffffffffffffffffffffffffffffffffffffffff166000809054906101000a900473ffffffffffffffffffffffffffffffffffffffff1673ffffffffffffffffffffffffffffffffffffffff167f8be0079c531659141344cd1fd0a4f28419497f9722a3daafe3b4186f6b6457e060405160405180910390a3806000806101000a81548173ffffffffffffffffffffffffffffffffffffffff021916908373ffffffffffffffffffffffffffffffffffffffff16021790555050565b60a06040519081016040528060608152602001600081526020016000815260200160008152602001606081525090565b828054600181600116156101000203166002900490600052602060002090601f016020900481019282601f10610cab57805160ff1916838001178555610cd9565b82800160010185558215610cd9579182015b82811115610cd8578251825591602001919060010190610cbd565b5b509050610ce69190610d74565b5090565b828054828255906000526020600020908101928215610d63579160200282015b82811115610d625782518260006101000a81548173ffffffffffffffffffffffffffffffffffffffff021916908373ffffffffffffffffffffffffffffffffffffffff16021790555091602001919060010190610d0a565b5b509050610d709190610d99565b5090565b610d9691905b80821115610d92576000816000905550600101610d7a565b5090565b90565b610dd991905b80821115610dd557600081816101000a81549073ffffffffffffffffffffffffffffffffffffffff021916905550600101610d9f565b5090565b905600a165627a7a72305820fe6795e75c9d5900beea2d1062367cd9fb799ed12b6c858d9f1ae2a7cb99a2ec0029",
  "source": "pragma solidity ^0.4.24;\n\nimport \"openzeppelin-solidity/contracts/ownership/Ownable.sol\";\n\n\ncontract VoteContract is Ownable{\n   struct Proposal {\n        string title;\n        uint voteCountPos;\n        uint voteCountNeg;\n        uint voteCountAbs;\n        mapping (address => Voter) voters;\n        address[] votersAddress;\n    }\n\n    struct Voter {\n        uint value;\n        bool voted;\n    }\n\n    Proposal[] public proposals;\n\n    event CreatedProposalEvent();\n    event CreatedVoteEvent();\n\n    function getNumProposals() public view returns (uint) {\n        return proposals.length;\n    }\n\n    function getProposal(uint proposalInt) public view returns (uint, string, uint, uint, uint, address[]) {\n        if (proposals.length > 0) {\n            Proposal storage p = proposals[proposalInt]; // Get the proposal\n            return (proposalInt, p.title, p.voteCountPos, p.voteCountNeg, p.voteCountAbs, p.votersAddress);\n        }\n    }\n\n    function addProposal(string title) public returns (bool) {\n        Proposal memory proposal;\n        CreatedProposalEvent();\n        proposal.title = title;\n        proposals.push(proposal);\n        return true;\n    }\n\n    function vote(uint proposalInt, uint voteValue) public returns (bool) {\n        if (proposals[proposalInt].voters[msg.sender].voted == false) { // check duplicate key\n            require(voteValue == 1 || voteValue == 2 || voteValue == 3); // check voteValue\n            Proposal storage p = proposals[proposalInt]; // Get the proposal\n            if (voteValue == 1) {\n                p.voteCountPos += 1;\n            } else if (voteValue == 2) {\n                p.voteCountNeg += 1;\n            } else {\n                p.voteCountAbs += 1;\n            }\n            p.voters[msg.sender].value = voteValue;\n            p.voters[msg.sender].voted = true;\n            p.votersAddress.push(msg.sender);\n            CreatedVoteEvent();\n            return true;\n        } else {\n            return false;\n        }\n    }\n}\n",
  "sourcePath": "/home/ubuntu/vote-dapp/contracts/VoteContract.sol",
  "compiler": {
    "name": "solc",
    "version": "0.4.24+commit.e67f0147.Emscripten.clang"
  },
  "schemaVersion": "3.0.23",
  "updatedAt": "2020-03-15T18:27:21.495Z",
  "networkType": "ethereum",
  "devdoc": {
    "methods": {
      "renounceOwnership()": {
        "details": "Allows the current owner to relinquish control of the contract."
      },
      "transferOwnership(address)": {
        "details": "Allows the current owner to transfer control of the contract to a newOwner.",
        "params": {
          "_newOwner": "The address to transfer ownership to."
        }
      }
    }
  },
  "userdoc": {
    "methods": {
      "renounceOwnership()": {
        "notice": "Renouncing to ownership will leave the contract without an owner. It will not be possible to call the functions with the `onlyOwner` modifier anymore."
      }
    }
  }
}